:100000000C9464000C948C000C948C000C948C0068
:100010000C948C000C948C000C948C000C94B608FE
:100020000C948C000C948C000C948C000C948C0020
:100030000C948C000C948C000C948C000C948C0010
:100040000C946C080C948C000C945E090C94380988
:100050000C948C000C948C000C948C000C948C00F0
:100060000C9490090C948C000000000023002600E2
:10007000290000000000240027002A0000000008DA
:10008000000201000003040700000000000000005F
:10009000010204081020408001020408102001021F
:1000A0000408102000000000250028002B00040494
:1000B0000404040404040202020202020303030310
:1000C00003030200AF0A6F1011241FBECFEFD8E068
:1000D000DEBFCDBF23E0A6ECB1E001C01D92A73783
:1000E000B207E1F711E0A0E0B1E0EAE8FBE202C00C
:1000F00005900D92A63CB107D9F710E0C3E6D0E019
:1001000004C02197FE010E940911C236D107C9F728
:100110000E947E0B0C94B8150C940000833081F083
:1001200028F4813099F08230A9F008958730A9F041
:100130008830C9F08430B1F4809180008F7D03C095
:10014000809180008F7780938000089584B58F77A9
:1001500084BD089584B58F7DFBCF8091B0008F77EB
:100160008093B00008958091B0008F7DF9CF1F93E8
:10017000CF93DF93282F30E0F901E458FF4F8491AB
:10018000F901E057FF4FD491F901E255FF4FC491B7
:10019000CC23A9F0162F81110E948E00EC2FF0E0E5
:1001A000EE0FFF1FEC55FF4FA591B4918FB7F89458
:1001B000EC91111108C0D095DE23DC938FBFDF9145
:1001C000CF911F910895DE2BF8CFCF93DF9390E06E
:1001D000FC01E057FF4F249182559F4FFC01849111
:1001E0008823C9F090E0880F991FFC01EE58FF4F5B
:1001F000A591B491FC01EC55FF4FC591D4916111CB
:100200000DC09FB7F8948C91209582238C938881A0
:10021000282328839FBFDF91CF910895623051F446
:100220009FB7F8943C91822F809583238C93E8812B
:100230002E2BEFCF8FB7F894EC912E2B2C938FBFF2
:10024000EACF8F929F92AF92BF92CF92DF92EF92BE
:10025000FF920F931F93CF938C016A017B018091D2
:100260000001823179F08F3F09F44FC0CF911F9187
:100270000F91FF90EF90DF90CF90BF90AF909F9045
:100280008F900895E2ECF0E0C491C7FDEFCF61E0FC
:1002900082E10E94E500C1114EC0980150E040E0AB
:1002A00068E478EE81E090E00E94EA1049015A018A
:1002B00081E0881A9108A108B10885B5887F83601C
:1002C00085BDD801AA0FBB1FA70196010E94771018
:1002D00028EE33E040E050E00E94C810C13009F43D
:1002E000B4C0C23009F4C3C0C111C0CF87BC2093D1
:1002F0009C0230939D0240939E0250939F028091F6
:100300006E00826080936E00B1CF82E18093000125
:10031000E2ECF0E0C491CF3F09F4A8CFC13009F47A
:100320003DC018F1C23009F457C0C7FD9FCF61E04E
:1003300082E10E94E500980150E040E0C23009F0FF
:100340006DC060E970ED83E090E00E94EA10490121
:100350005A0181E0881A9108A108B1088091B10082
:10036000887F83608093B100ACCF14BC15BC84B58A
:10037000826084BD85B5816085BDE0ECF0E0E491EC
:10038000F0E0EE0FFF1FEC55FF4F85919491E2EAEC
:10039000F0E0E491E0939302C0E079CF1092800006
:1003A000109281008091810088608093810080910B
:1003B0008100816080938100E0ECF0E0E491F0E066
:1003C000EE0FFF1FEC55FF4F85919491E2EAF0E0AC
:1003D000E491E09392025BCF1092B0001092B100D2
:1003E0008091B00082608093B0008091B100816004
:1003F0008093B100E0ECF0E0E491F0E0EE0FFF1F3D
:10040000EC55FF4F859194919093910280939002C7
:10041000E2EAF0E0E491E0938F0239CF60E072E12C
:100420008AE790E00E94EA1049015A0181E0881AA7
:100430009108A108B108C13009F043CF8091810033
:10044000887F8160809381003CCF90928900809268
:100450008800209398023093990240939A02509317
:100460009B0280916F00826080936F00FFCE80922C
:10047000B3002093940230939502409396025093D8
:10048000970280917000826080937000EFCE3FB73A
:10049000F89480918B0290918C02A0918D02B09182
:1004A0008E0226B5A89B05C02F3F19F00196A11D0D
:1004B000B11D3FBFBA2FA92F982F8827BC01CD01AE
:1004C000620F711D811D911D42E0660F771F881F0D
:1004D000991F4A95D1F708958F929F92AF92BF923C
:1004E000CF92DF92EF92FF924B015C010E94470294
:1004F0006B017C010E9447026C197D098E099F09DE
:10050000683E734081059105A8F321E0821A9108A5
:10051000A108B10888EEC80E83E0D81EE11CF11CCA
:1005200081149104A104B10429F7FF90EF90DF90AA
:10053000CF90BF90AF909F908F9008952FB7F89471
:1005400060918702709188028091890290918A025D
:100550002FBF08950F931F930E949E0200915F0387
:10056000109160032091610330916203601B710B55
:10057000820B930B603177428105910580F01092D8
:100580005E0310925D0310925F031092600310925D
:1005900061031092620380E01F910F91089581E042
:1005A000FBCF08950895AF92BF92CF92DF92EF9262
:1005B000FF920F931F93CF93DF936C017B018B010D
:1005C000040F151FEB015E01AE18BF08C017D1075D
:1005D00059F06991D601ED91FC910190F081E02DE7
:1005E000C6010995892B79F7C501DF91CF911F913C
:1005F0000F91FF90EF90DF90CF90BF90AF90089554
:10060000FC01448155816081718183E693E00C9403
:10061000D302FC01538D448D252F30E0842F90E0D0
:10062000821B930B541710F0CF96089501970895ED
:10063000FC01918D828D981761F0A28DAE0FBF2FB6
:10064000B11D5D968C91928D9F5F9F73928F90E00C
:1006500008958FEF9FEF0895FC01918D828D98177B
:1006600031F0828DE80FF11D858D90E008958FEFB8
:100670009FEF0895FC01918D228D892F90E0805C81
:100680009F4F821B91098F739927089580EA92E00A
:100690000E943A0321E0892B09F420E0822F08957B
:1006A00080E090E0892B29F00E94460381110C9490
:1006B00000000895FC01A48DA80FB92FB11DA35A05
:1006C000BF4F2C91848D90E001968F739927848F72
:1006D000A689B7892C93A089B1898C918370806495
:1006E0008C93938D848D981306C00288F389E02D36
:1006F00080818F7D80830895EF92FF920F931F93E7
:10070000CF93DF93EC0181E0888F9B8D8C8D9813C4
:100710001AC0E889F989808185FF15C09FB7F894D0
:10072000EE89FF896083E889F9898081837080641C
:1007300080839FBF81E090E0DF91CF911F910F9167
:10074000FF90EF900895F62E0B8D10E00F5F1F4F76
:100750000F731127E02E8C8D8E110CC00FB607FC85
:10076000FACFE889F989808185FFF5CFCE010E9413
:100770005A03F1CFEB8DEC0FFD2FF11DE35AFF4F24
:10078000F0829FB7F8940B8FEA89FB8980818062A1
:10079000CFCFCF93DF93EC01888D8823B9F0AA895E
:1007A000BB89E889F9898C9185FD03C0808186FD2C
:1007B0000DC00FB607FCF7CF8C9185FFF2CF80817B
:1007C00085FFEDCFCE010E945A03E9CFDF91CF9193
:1007D0000895CF93DF93DC0126E0629FA00DB11D49
:1007E000112490965C934E935F9721E091962C9301
:1007F0009197FC01E359FF4F0190F081E02DEC014E
:10080000C459DF4F2881222341F0309719F0DC01D1
:10081000662329F0DF91CF9108953097D9F35C9644
:100820008C91DF91CF910994CF92DF92EF92FF925A
:100830000F931F93CF93DF93EC01162F042FFC012E
:1008400086E0689FE00DF11D112411A2878D90A113
:100850008130910509F180F08230910509F443C09F
:10086000039709F445C0DF91CF911F910F91FF903D
:10087000EF90DF90CF9008954423A9F341E050E03A
:10088000CE010E94E9030E949E02C85ADF4F68838E
:1008900079838A839B83E7CF0E949E02FE01E85AF8
:1008A000FF4FC080D180E280F380AB01BC014C19C6
:1008B0005D096E097F09729680819181B0E0A0E0A8
:1008C00084179507A607B70770F442E050E0612F40
:1008D000CE01DF91CF911F910F91FF90EF90DF90AC
:1008E000CF900C94E90343E050E00111BCCFEFCF6F
:1008F00050E040E0ECCFCF93DF9370E0FB01E45891
:10090000FF4F8491FB01E057FF4FD49162557F4F19
:10091000FB01C491CC23A1F081110E948E00EC2F29
:10092000F0E0EE0FFF1FE859FF4FA591B491EC9155
:10093000ED2381E090E009F480E0DF91CF9108950C
:1009400080E090E0FACF862F642F0C94B700862FBA
:10095000642F0C94E500089520910702260F332799
:10096000331F21323105ECF420915002FC0190E05C
:1009700080E0243069F082E00895A091070221917F
:10098000AC0149515E4FA40FB52FB11D2C930196B8
:10099000861798F380910702680F6093070280E042
:1009A000089581E008951092500281E080934F02F3
:1009B00010922A0261E082E10E94B70061E083E1C7
:1009C0000E94B700E9EBF0E080818E7F8083808118
:1009D0008D7F808388E48093B80085E48093BC0099
:1009E0000895CF93DF9391E09093E6018823B9F0C7
:1009F000C091B800D091BA008091BC008A7B8093EE
:100A0000BC0060E082E10E94B70060E083E10E94E8
:100A1000B7000E94D304D093BA00C093B800DF910E
:100A2000CF9108950895E0917F0280917E02E817AA
:100A300030F4F0E0EA53FE4F808190E008958FEFAC
:100A40009FEF089590917F0280917E022FEF3FEFFC
:100A5000981748F4E92FF0E0EA53FE4F208130E088
:100A60009F5F90937F02C901089580917E029091CB
:100A70007F02891B990B0895CF92DF92EF92FF922C
:100A80000F931F93CF93DF937C01CB018A012091B9
:100A90005602222389F0EB016B01C40ED51ECC1542
:100AA000DD0569F06991D701ED91FC910190F0812C
:100AB000E02DC7010995F3CF642F0E94AC04C80153
:100AC000DF91CF911F910F91FF90EF90DF90CF902A
:100AD0000895CF93DF931F92CDB7DEB7698320913E
:100AE00056022223F9F020917C02203258F021E0B6
:100AF00030E0FC013383228390E080E00F90DF91AF
:100B0000CF91089580917D02E82FF0E0E95AFD4FE2
:100B1000998190838F5F80937D0280937C0281E036
:100B200090E0ECCF61E0CE0101960E94AC04F7CFDB
:100B3000CF92DF92EF92FF920F931F93CF93DF93A9
:100B4000FC01C48121E020935602C09377021092E9
:100B50007D0210927C028385682B8DE393E00E94D6
:100B60006905D0917C02D13208F092C00E94470200
:100B70006B017C0180915002811165C082E08093FD
:100B8000500281E080934F028FEF80934E021092CB
:100B90004D02D0934C02A7E5B2E0ECE2F2E080E037
:100BA000D81385C010922B0280912B02CC0FC82B3A
:100BB000C0932B0280912A02813009F07CC01092F0
:100BC0002A020E9447026B017C0180912B028093D4
:100BD000BB008091520290915302A0915402B091B7
:100BE0005502892B8A2B8B2B99F00E94470200918A
:100BF00052021091530220915402309155026C1907
:100C00007D098E099F090617170728073907E0F1A4
:100C10008091BC0083FDD9CF85EC8093BC000E94FD
:100C200047026B017C0180915002823009F445C07B
:100C300080914E028F3F61F180914E02803241F1EE
:100C400080914E0225C08091520290915302A09152
:100C50005402B0915502892B8A2B8B2B09F48ACF31
:100C60000E944702009152021091530220915402B7
:100C7000309155026C197D098E099F0906171707D7
:100C80002807390708F076CF809151020E94F104BD
:100C900010927D0210927C0210925602DF91CF9149
:100CA0001F910F91FF90EF90DF90CF9008959D914D
:100CB00091938F5F75CF85EEB0CF80915202909166
:100CC0005302A0915402B0915502892B8A2B8B2B91
:100CD00009F4A9CF0E9447020091520210915302D9
:100CE00020915402309155026C197D098E099F099B
:100CF000061717072807390708F095CFC5CF90E0EA
:100D000080E008950F931F93CF938C01C62F0E940C
:100D100098056C2F6460C8010E9498056C2F6B7F4A
:100D2000C8010E94980583EC90E00197F1F7CF91FC
:100D30001F910F9108950F931F93CF93DF938C0111
:100D4000D62FC42F607F642B0E94820680E1D89F3B
:100D5000B00111246C2BC801DF91CF911F910F912D
:100D60000C948206CF93DF93CDB7DEB728970FB6EA
:100D7000F894DEBF0FBECDBF98E0E7E0F1E0DE0102
:100D8000119601900D929A95E1F790916B03981747
:100D900008F48FEF90E0880F991F21E030E02C0FCE
:100DA0003D1F820F931FFC016081606840E083E675
:100DB00093E028960FB6F894DEBF0FBECDBFDF914B
:100DC000CF910C949B0640E061E083E693E00E94A3
:100DD0009B068BE39FE10197F1F7089541E00E94A4
:100DE0009B0681E090E00895FC018081918100974D
:100DF00011F00C94AB1108950E94E30680E00E946C
:100E0000B2064EE050E061E671E083E693E00E94B6
:100E1000D30281E00E94B2064EE050E060E771E04C
:100E200083E693E00C94D3020F931F93CF93DF9349
:100E3000EC0188819981009759F02A813B8126171E
:100E4000370730F081E0DF91CF911F910F91089526
:100E50008B016F5F7F4F0E943412009759F0998386
:100E600088831B830A832C813D81232B59F7FC0146
:100E70001082E8CF80E0E7CFEF92FF920F931F93AD
:100E8000CF93DF9300D0CDB7DEB78C0169831A8290
:100E9000FC01E480F580FFEFEF1AFF0AB7010E9422
:100EA0001407882381F0F8012081318184819581A4
:100EB000BE016F5F7F4F820F931F0E940313F801E3
:100EC000F582E48281E00F900F90DF91CF911F9126
:100ED0000F91FF90EF900895EF92FF920F931F9361
:100EE000CF93DF93EC017B018A01BA010E941407C2
:100EF00028813981811114C02115310519F0C901EA
:100F00000E94AB11198218821D821C821B821A82D8
:100F1000CE01DF91CF911F910F91FF90EF90089537
:100F20001D830C83B701C9010E940313F1CFFB019C
:100F300001900020E9F73197AF01461B570B0C9445
:100F40006C07FC01118210821382128215821482B6
:100F5000FB0101900020E9F73197AF01461B570BC9
:100F60000C946C07DF92EF92FF920F931F93CF9335
:100F7000DF93EC017B0163E871E00E94A107D701D8
:100F800014960D911C9101151105E1F00031110528
:100F900010F000E110E0D701ED91FC911197E00F06
:100FA000F11FD08010826D917C916115710599F0CF
:100FB000CE010E949707F70180819181080F191FC8
:100FC000D801DC92CE01DF91CF911F910F91FF905C
:100FD000EF90DF90089588819981009711F00E9429
:100FE000AB11198218821D821C821B821A82E3CFE8
:100FF000EF92FF920F931F93CF93DF9300D000D017
:1010000000D0CDB7DEB77C018B010E94E30680E003
:101010000E94B206B701CE0101960E94B207CE012E
:1010200001960E940003CE0101960E94F40681E021
:101030000E94B206B801CE0101960E94B207CE010D
:1010400001960E940003CE0101960E94F4062696A6
:101050000FB6F894DEBF0FBECDBFDF91CF911F91C9
:101060000F91FF90EF90089585ED8093BC008091E3
:10107000520290915302A0915402B09155020796EA
:10108000A11DB11D23E0B695A795979587952A9543
:10109000D1F72091BC0024FD03C0109250020895A6
:1010A0004091520250915302609154027091550246
:1010B000452B462B472B69F30097A105B10541F05D
:1010C0002AE22A95F1F700C00197A109B109E1CF01
:1010D000809151020C94F1041F920F920FB60F925F
:1010E00011242F933F938F939F93AF93BF9380913E
:1010F000870290918802A0918902B0918A02309172
:10110000860223E0230F2D3758F50196A11DB11D4E
:10111000209386028093870290938802A09389028D
:10112000B0938A0280918B0290918C02A0918D02E3
:10113000B0918E020196A11DB11D80938B029093F8
:101140008C02A0938D02B0938E02BF91AF919F91BC
:101150008F913F912F910F900FBE0F901F90189578
:1011600026E8230F0296A11DB11DD2CF1F920F9228
:101170000FB60F9211242F933F934F935F936F936A
:101180007F938F939F93AF93BF93EF93FF93809140
:10119000940290919502A0919602B0919702892BAA
:1011A0008A2B8B2BD1F190918F02E0919002F091DC
:1011B0009102808189278083809194029091950289
:1011C000A0919602B0919702181619061A061B06EE
:1011D0009CF48091940290919502A0919602B09116
:1011E00097020197A109B109809394029093950207
:1011F000A0939602B0939702FF91EF91BF91AF91A8
:101200009F918F917F916F915F914F913F912F911E
:101210000F900FBE0F901F90189580910001E2EC87
:10122000F0E0E4919FEF90930001E13051F030F055
:10123000E23069F060E00E94B700DECF10926E00ED
:10124000F9CF90916F009D7F90936F00F3CF9091B5
:1012500070009D7F9093700091E09093B00090910A
:10126000B100987F94609093B1001092B300E2CFE8
:101270001F920F920FB60F9211242F933F934F930B
:101280005F936F937F938F939F93AF93BF93EF93EE
:10129000FF9380EA92E00E945A03FF91EF91BF9181
:1012A000AF919F918F917F916F915F914F913F91FE
:1012B0002F910F900FBE0F901F9018951F920F92B5
:1012C0000FB60F9211242F938F939F93EF93FF9359
:1012D000E091B002F091B1028081E091B602F0910C
:1012E000B70282FD1BC090818091B9028F5F8F731E
:1012F0002091BA02821741F0E091B902F0E0E05685
:10130000FD4F958F8093B902FF91EF919F918F913F
:101310002F910F900FBE0F901F9018958081F4CFE2
:101320001F920F920FB60F9211242F933F934F935A
:101330005F936F937F938F939F93AF93BF93EF933D
:10134000FF938091B900887F803609F44AC0F0F598
:10135000883209F4A7C018F5803109F49BC0B8F4AD
:10136000882309F4F9C0883009F494C0FF91EF9103
:10137000BF91AF919F918F917F916F915F914F91AD
:101380003F912F910F900FBE0F901F9018958831AD
:1013900009F488C0803251F780934E0214C0803423
:1013A00009F49DC040F48033B9F38833F9F6809393
:1013B0004E0285ECB0C0803509F485C0883509F44B
:1013C00096C0883499F60E943408D0CF883909F441
:1013D0008CC038F5883729F050F4883611F0803702
:1013E00029F683E0809350021092290257C0883872
:1013F00009F47BC0803919F0803809F0B7CF8091AB
:101400002902803208F071C0E091290281E08E0F3C
:10141000809329028091BB00F0E0E75FFD4F80835D
:101420003DC0803B39F0E0F4803A09F479C0883A55
:1014300009F09CCF84E08093500210920802109231
:101440000702E0917A02F0917B02099580910702F0
:1014500081110FC081E0809307021092E70109C05B
:10146000803C09F4A6CF883C09F4A3CF883B09F05F
:101470007DCFE091080281E08E0F80930802F0E0BA
:10148000E951FE4F80818093BB00909108028091CA
:10149000070229C080912B028093BB0085EC8093CA
:1014A000BC0064CF90914D0280914C02981758F582
:1014B000E0914D0281E08E0F80934D02F0E0E45DFB
:1014C000FD4F8081E9CFE0914D0281E08E0F809346
:1014D0004D028091BB00F0E0E45DFD4F8083909170
:1014E0004D0280914C029817C8F285E8D8CFE09160
:1014F0004D0281E08E0F80934D028091BB00F0E0A1
:10150000E45DFD4F808380914F0281115CCF81E0CB
:1015100080932A0284EA8093BC001092500226CF66
:1015200085EC8093BC001092500280912902803299
:1015300030F4E0912902F0E0E75FFD4F1082609106
:10154000290270E0E0917802F091790289E092E05E
:101550000995109229020ACF10924E0234CFCF93F0
:10156000DF9300D000D000D0CDB7DEB71092A30239
:101570001092A20288EE93E0A0E0B0E08093A40273
:101580009093A502A093A602B093A7022DE231E0AA
:101590003093A1022093A00225EC30E03093AD02FD
:1015A0002093AC0224EC30E03093AF022093AE02E3
:1015B00020EC30E03093B1022093B00221EC30E017
:1015C0003093B3022093B20222EC30E03093B502A4
:1015D0002093B40226EC30E03093B7022093B60299
:1015E0001092B9021092BA021092BB021092BC0281
:1015F0001092400310923F03809341039093420363
:10160000A0934303B09344038FE391E090933E0390
:1016100080933D038DE591E09093700380936F0379
:1016200089E591E0909372038093710382E0809347
:101630004D0396E09093490393E090934E0397E017
:1016400090934A0394E090934F0398E090934B0358
:1016500095E09093500399E090934C0310926603A9
:101660001092650321E531E0309364032093630316
:1016700097E29093670390E190936C0380936D03DE
:1016800010926E036FE771E0CE0101960E94A107F0
:10169000109258031092570310925A031092590354
:1016A00010925C0310925B0369817A816115710568
:1016B00031F04D815E8187E593E00E946C071092C6
:1016C0005E0310925D0310925F031092600310920C
:1016D000610310926203CE0101960E94F40663E852
:1016E00071E081E593E00E94A10726960FB6F89479
:1016F000DEBF0FBECDBFDF91CF910895CF93DF93B3
:10170000CDB7DEB7A7970FB6F894DEBF0FBECDBF3B
:10171000789484B5826084BD84B5816084BD85B5CC
:10172000826085BD85B5816085BD80916E008160D8
:1017300080936E001092810080918100826080937E
:101740008100809181008160809381008091800080
:101750008160809380008091B10084608093B100AB
:101760008091B00081608093B00080917A008460A5
:1017700080937A0080917A00826080937A008091D1
:101780007A00816080937A0080917A0080688093EB
:101790007A001092C10061E081E10E94E50061E001
:1017A00082E10E94E50060E081E10E94B70060E014
:1017B00082E10E94B700E091B002F091B10282E0B4
:1017C0008083E091AC02F091AD021082E091AE0214
:1017D000F091AF028FEC80831092B802E091B402D6
:1017E000F091B50286E08083E091B202F091B302FD
:1017F000808180618083E091B202F091B3028081A8
:1018000088608083E091B202F091B30280818068A9
:101810008083E091B202F091B30280818F7D80835A
:101820008091800290918102892B09F052C08FE64D
:1018300090E00E940F11FC0112821682158217821D
:1018400083E191E091838083DF015C96CD01CC96AA
:101850001C9214961C921E92139715961C92159723
:1018600016968A179B07A1F7DF01AE59BF4F8DE48B
:1018700093E011969C938E93129689E493E01196CF
:101880009C938E93129684E08C9311968C93179769
:1018900089E191E011969C938E9318968AE090E0EE
:1018A00011969C938E93129684EF91E011969C93DF
:1018B0008E93139611961C921E9251971D921D9213
:1018C0001D921C92139750961C92F0938102E09304
:1018D000800210927F0210927E0210927D0210927E
:1018E0007C020E94D30481ED92E090937B0280936E
:1018F0007A0282ED92E090937902809378021092BE
:10190000680380916D03823018F098E0909368032B
:1019100080936B0362E370E080E090E00E946C02D1
:1019200060916E0383E693E00E94980568EE73E091
:1019300080E090E00E946C0260E383E693E00E9406
:1019400082060BE416E4C8010197F1F760E383E631
:1019500093E00E948206C8010197F1F760E383E6F5
:1019600093E00E94820683E592E00197F1F760E23E
:1019700083E693E00E94820660916803606240E023
:1019800083E693E00E949B0684E08093690340E035
:101990006CE083E693E00E949B060E94E30682E0EF
:1019A00080936A0340E066E083E693E00E949B0632
:1019B00040E062E083E693E00E949B068BE39FE1B8
:1019C0000197F1F788E080936E0360E083E693E08F
:1019D0000E9498050E94FC060E94FC069E012F5F53
:1019E0003F4F690180915F0390916003A091610373
:1019F000B0916203892B8A2B8B2B09F49EC00E9425
:101A0000AA02882309F499C080915F039091600332
:101A1000A0916103B0916203892B8A2B8B2B09F073
:101A200065C080915F0390916003A0916103B091C4
:101A30006203892B8A2B8B2B09F05DC080E090E03C
:101A4000DC01BC01CD0169517C4F8F4F9F4F28EEC7
:101A500033E040E050E00E94C8105F934F933F9303
:101A60002F9344E851E05F934F931F9281E18F934E
:101A7000DF92CF920E940A13B601CE0142960E94D5
:101A8000A10764E971E0CE0148960E94A107BE015A
:101A90006E5E7F4FCE0148960E94F807CE014896B1
:101AA0000E94F406CE0142960E94F40644E650E0FD
:101AB00060E070E088EE93E00E94210164EF71E045
:101AC00080E090E00E946C020FB6F894DEBF0FBE7B
:101AD000CDBFE0E0F0E0EF2B09F484CF0E94460395
:101AE000882309F47FCF0E9400007CCF0E94AA02C5
:101AF000882309F496CF0E949E0200915F03109103
:101B000060032091610330916203DC01CB01801BF3
:101B1000910BA20BB30B803137E29307A105B105FE
:101B200008F08CCF20E137E240E050E0281B390B71
:101B30004A0B5B0BDA01C90184CF0091800210913E
:101B400081020115110509F46FC1F801E459FF4F35
:101B5000F9A3E8A381E080830E949E029801245AA1
:101B60003F4F3BA32AA3D9018D909D90AD90BC908F
:101B7000AB01BC01481959096A097B09F801E85908
:101B8000FF4F80819181B0E0A0E084179507A60700
:101B9000B70708F061C1B12C3297FF8FEE8F780143
:101BA000F2E6EF0EF11CAE8DBF8D8C91B81698F455
:101BB000F701A081B181CD018B0D911DD801ED916F
:101BC000FC910190F081E02D42E0DC016C91C801B4
:101BD0000995B394E8CF312CF801E959FF4FFDA3E3
:101BE000ECA32801F4E64F0E511C98012E593F4FEB
:101BF0003FA32EA3ACA1BDA18C91381608F07FC0E5
:101C0000A32CB12CF201A081B181CD018A0D9B1DC5
:101C1000D801ED91FC910190F081E02D41E0DC01D3
:101C20006C91C8010995F201A081B181CD018A0DA5
:101C30009B1DD801ED91FC910280F381E02D40E0E5
:101C4000DC016C91C801099581E090E0A0E0B0E072
:101C5000032C04C0880F991FAA1FBB1F0A94D2F738
:101C60003C014C0180949094212CD801ED91FC9181
:101C7000AE8DBF8D8C91281618F5E22CF12CAEA1FB
:101C8000BFA18D919C91DC01AE0DBF1D0480F5813B
:101C9000E02D6C91C8010995EE0CFF1CF801EE0DCA
:101CA000FF1D892B41F4808591858629972991878D
:101CB00080872394DACF8085918588219921F7CF79
:101CC000D2018D919C91DC01AA0DBB1D0280F38194
:101CD000E02D41E06C91C8010995F201808191816C
:101CE000A80EB91ED801ED91FC910190F081E02D74
:101CF00040E0D5016C91C801099533947BCF480130
:101D0000C801CC967801F701278D30A1232B31F43F
:101D1000148E2FEF3FEF368F258F11A236E0E30EA2
:101D2000F11C8E159F0579F7712C280140E6440EB1
:101D3000511CAE8DBF8D8C91781608F054C0612C6B
:101D4000A72CB12CB4E0AB0EB11CAA0CBB1CA00E8E
:101D5000B11EECA1FDA18081681608F042C0D5013A
:101D60004D915C91062C02C0569547950A94E2F776
:101D7000789EC0011124860D911DF80160E0258D2B
:101D8000368D8217930709F466C16F5F36966A3005
:101D9000B1F740FF24C0F80170E060E0248D21110C
:101DA00018C0D201ED91FC91E80FF91F2081B6E037
:101DB000B69FF001B79FF00D1124E00FF11F248FA3
:101DC000968F858F10A2178E41E0C8010E941404DF
:101DD00006C06F5F7F4F36966A307105F9F66394DF
:101DE000B8CF7394A6CFB12CF40181A18111B82E84
:101DF000F6E08F0E911C8E149F04B1F70E949E0294
:101E0000AAA1BBA16D937D938D939C931397BB2047
:101E100019F1F80181A18823F9F0878D90A101972C
:101E2000D9F4148D11111CC063E871E0CE01429603
:101E30000E94A10710E000E08091550390915603A5
:101E40000817190708F0BFC06AE2CE0142960E9447
:101E50003C070F5F1F4FF0CFA8A1B9A11C92E4CFA0
:101E60000E949E0260938202709383028093840298
:101E7000909385021A3239F463E871E081E593E0CA
:101E80000E949707D1CF809155039091560313324A
:101E900009F090C0892B41F280915F03909160031B
:101EA000A0916103B0916203892B8A2B8B2B11F5D2
:101EB000209155033091560380915B0390915C0310
:101EC0002817390709F05FC08091510390915203A0
:101ED0006091570370915803009709F4BEC06115D3
:101EE000710509F04DC0232B09F4C5C0DC018C91AC
:101EF00090E0BEC00E94AA028823D1F265EB71E097
:101F0000C6010E94A10764E971E0CE0142960E94D9
:101F1000A107B601CE0142960E94F807CE01429673
:101F20000E94F406C6010E94F40648E750E060E013
:101F300070E080ED97E00E94210166E970E080E0AA
:101F400090E00E946C0248E750E060E070E080EDB5
:101F500097E00E94210166E970E080E090E00E9435
:101F60006C0263E871E081E593E00E94970768EEF8
:101F700073E080E090E00E946C020E94FC0654CF67
:101F80000E94FA1275C080915D0390915E030196E4
:101F900090935E0380935D0303970CF4AFCF0E9490
:101FA0009E0260935F03709360038093610390933C
:101FB0006203A4CF089708F037CF612F81E593E043
:101FC0000E943C0731CF81E00E94B2061A8219823A
:101FD0001C821B821E821D826A897B8961157105A4
:101FE00029F04E895F89C6010E946C078D819E8110
:101FF000409728F460E2C6010E943C07F7CFC60173
:102000000E940003C6010E94F4068091550390913E
:102010005603892BD9F00E949E02009182021091F2
:1020200083022091840230918502601B710B820B28
:10203000930B693873418105910540F063E871E0C5
:1020400081E593E00E9497070E94FC06CE0142962C
:102050000E94F4063ECD4170B8CE6115710559F06D
:10206000232B49F0FB01808190E0919581959109A6
:10207000892B09F088CF10925E0310925D031092B5
:102080005F0310926003109261031092620363E891
:1020900071E0C6010E94A10764EA71E0CE01429698
:1020A0000E94A107B601CE0142960E94F807CE0118
:1020B00042960E94F406C6010E94F40661E081E1A6
:1020C0000E94B70068E873E180E090E00E946C0233
:1020D00060E081E10E94B7000E94FC06CDCE81E560
:1020E00093E00E94F40687E593E00C94F4060E94C6
:1020F000B910A59F900DB49F900DA49F800D911DC8
:10210000112408952F923F924F925F926F927F9287
:102110008F929F92AF92BF92CF92DF92EF92FF92F7
:102120000F931F93CF93DF93CDB7DEB7CA1BDB0BA3
:102130000FB6F894DEBF0FBECDBF09942A88398848
:1021400048885F846E847D848C849B84AA84B9844F
:10215000C884DF80EE80FD800C811B81AA81B9815B
:10216000CE0FD11D0FB6F894DEBF0FBECDBFED016F
:102170000895A29FB001B39FC001A39F700D811D60
:102180001124911DB29F700D811D1124911D089580
:10219000A1E21A2EAA1BBB1BFD010DC0AA1FBB1F6B
:1021A000EE1FFF1FA217B307E407F50720F0A21BDD
:1021B000B30BE40BF50B661F771F881F991F1A944A
:1021C00069F760957095809590959B01AC01BD0174
:1021D000CF010895052E97FB1EF400940E94011173
:1021E00057FD07D00E94C81007FC03D04EF40C9492
:1021F000011150954095309521953F4F4F4F5F4FBE
:10220000089590958095709561957F4F8F4F9F4F62
:102210000895EE0FFF1F0590F491E02D09940F93A0
:102220001F93CF93DF938230910510F482E090E00A
:10223000E0917503F091760330E020E0B0E0A0E09B
:10224000309799F42115310509F44AC0281B390B40
:1022500024303105D8F58A819B816115710589F19A
:10226000FB0193838283FE0111C040815181028171
:10227000138148175907E0F04817590799F4109748
:1022800061F012960C93129713961C933296CF011D
:10229000DF91CF911F910F910895009375031093D3
:1022A0007603F4CF2115310551F04217530738F06A
:1022B000A901DB019A01BD01DF01F801C1CFEF01E6
:1022C000F9CF9093760380937503CDCFFE01E20F93
:1022D000F31F819391932250310939832883D7CFFB
:1022E0002091730330917403232B41F42091030157
:1022F0003091040130937403209373032091010102
:10230000309102012115310541F42DB73EB74091BE
:10231000050150910601241B350BE0917303F091E8
:102320007403E217F307A0F42E1B3F0B281739079D
:1023300078F0AC014E5F5F4F2417350748F04E0F21
:102340005F1F5093740340937303819391939FCFC6
:10235000F0E0E0E09CCFCF93DF930097E9F0FC0141
:10236000329713821282A0917503B0917603ED012A
:1023700030E020E01097A1F420813181820F931F7B
:1023800020917303309174032817390709F061C055
:10239000F0937403E0937303DF91CF910895EA0102
:1023A000CE17DF07E8F54A815B819E014115510593
:1023B000B1F7E901FB83EA8349915991C40FD51F15
:1023C000EC17FD0761F4808191810296840F951FBF
:1023D000E90199838883828193819B838A83F0E0DA
:1023E000E0E012968D919C9113970097B9F52D918D
:1023F0003C911197CD010296820F931F2091730398
:10240000309174032817390739F6309751F5109237
:10241000760310927503B0937403A0937303BCCF3B
:10242000D383C28340815181840F951FC817D90778
:1024300061F44E5F5F4F88819981480F591F518326
:1024400040838A819B81938382832115310509F022
:10245000B0CFF0937603E09375039ECFFD01DC01CE
:10246000C0CF13821282D7CFB0E0A0E0EAE3F2E15E
:102470000C9484108C01009751F4CB010E940F1131
:102480008C01C801CDB7DEB7E0E10C94A010FC01CF
:10249000E60FF71F9C0122503109E217F30708F4F9
:1024A0009DC0D901CD91DC911197C617D70798F03F
:1024B000C530D10530F3CE0104978617970708F38E
:1024C000C61BD70B2297C193D1936D937C93CF01F9
:1024D0000E94AB11D6CF5B01AC1ABD0A4C018C0E29
:1024E0009D1EA0917503B0917603512C412CF12CC7
:1024F000E12C109731F58091730390917403881546
:10250000990509F05CC04616570608F058C080913E
:10251000010190910201009741F48DB79EB740915F
:10252000050150910601841B950BE817F90708F087
:1025300055C0F0937403E0937303F90171836083D2
:10254000A0CF8D919C91119712966C901297139633
:102550007C901397A815B90559F56C0142E0C40E9B
:10256000D11CCA14DB0420F1AC014A195B09DA0161
:102570001296159780F06282738251834083D9014D
:102580006D937C93E114F10471F0D7011396FC93E1
:10259000EE93129776CF22968C0F9D1FF9019183AF
:1025A0008083F301EFCFF0937603E093750369CF57
:1025B0004816590608F42C017D01D3019ACFCB01AE
:1025C0000E940F117C01009749F0AE01B8010E94F2
:1025D000F112C8010E94AB11870153CF10E000E057
:1025E00050CFFB01DC0102C001900D9241505040E0
:1025F000D8F70895FB01DC018D910190801901103D
:10260000D9F3990B0895FB01DC0101900D92002094
:10261000E1F70895AEE0B0E0E0E1F3E10C94901052
:102620000D891E898F89988D26E02C831A83098352
:1026300097FF02C080E090E801979E838D83AE01F2
:10264000455E5F4F698D7A8DCE0101960E943A13E7
:102650004D815E8157FD0AC02F813885421753078F
:102660000CF49A01020F131FF80110822E96E4E079
:102670000C94AC10ABE0B0E0E0E4F3E10C94821019
:102680007C013B018A01FC0117821682838181FF54
:10269000C8C1CE0101965C01F7019381F30193FD5E
:1026A000859193FF81913F01882309F453C18532BD
:1026B00039F493FD859193FF81913F01853229F48F
:1026C000B70190E00E942A15E7CF912C212C312CE4
:1026D000FFE1F31538F08B3211F190F4803209F1FB
:1026E000833229F137FC3CC020ED280F2A3050F509
:1026F00036FE20C08AE0989E200D1124922E06C03E
:102700008D3291F0803371F7689430F8F30193FDC6
:10271000859193FF81913F018111DACF21C06894A7
:1027200031F8689432F8F2CF689433F8EFCF6894B8
:1027300034F8ECCFEAE02E9E200D1124222E68946E
:1027400035F8E4CF8E3229F436FC04C1689436F8AB
:10275000DDCF8C3619F4689437F8D8CF8836B1F2CB
:10276000982F9F7D95549330E0F08336A1F1833705
:10277000C1F1833509F063C02801F2E04F0E511C0E
:10278000F801C080D180692D70E036FC02C06FEF87
:102790007FEFC6010E9414154C01689437F882013E
:1027A0000AC00C5F1F4FFFE3F98388248394912CA8
:1027B0006501E89437F833FE2DC0522C8114910442
:1027C00071F5552009F468CFB70180E290E00E94CE
:1027D0002A155A94F6CFF801808189830E5F1F4F26
:1027E000E4CF2801F2E04F0E511CF801C080D180E7
:1027F000692D70E036FC02C06FEF7FEFC6010E94CA
:102800001F154C018201D5CFB70180E290E00E94F4
:102810002A152A942814190409F0B0F7CECFF6012E
:1028200037FC859137FE81916F01B70190E00E94DE
:102830002A1551105A94F1E08F1A9108BFCF8436AF
:1028400019F0893609F077C0F80137FE6BC0608156
:102850007181828193810C5F1F4FF32DFF763F2E94
:1028600097FF09C090958095709561957F4F8F4F28
:102870009F4F689437F82AE030E0A5010E945A156E
:10288000C82ECA188C2C432C36FE0CC0E89440F895
:10289000C91440F434FE05C032FC03C0F32DFE7EA3
:1028A0004F2E892C44FE95C0FE01EC0DF11D808158
:1028B000803309F087C0242D297E422E842D887014
:1028C000582E43FC95C040FE8FC09C2C821418F4F7
:1028D0002C0C922C981844FE91C0B70180E390E034
:1028E0000E942A1542FE09C088E790E041FE02C01E
:1028F00088E590E0B7010E942A15C91408F48AC03F
:10290000CA94D12C9FEFC91AD90ACA0CDB1CF60154
:1029100082916F01B70190E00E942A15AC14BD04AA
:10292000B1F74FCF60817181072E000C880B990B96
:102930000E5F1F4F92CFD32CE894D4F82AE030E0FA
:10294000853739F1232D297FD22E8F3601F148F4B6
:102950008835A9F0F701868197812B96E2E10C94E6
:102960009E10803749F08837A9F7D4FE02C06894DA
:10297000D2F820E130E00DC06894D4F8F6CF34FEF0
:1029800003C0822F8660D82E20E132E002C028E00A
:1029900030E0F801D7FE0FC06081718182819381A0
:1029A0000C5F1F4FA5010E945A15C82ECA183D2C56
:1029B000E89437F867CF6081718190E080E00E5F26
:1029C0001F4FF0CF42FC02C0839478CF839483944E
:1029D00075CF842D867809F471CFF6CFB70180E2E8
:1029E00090E00E942A1583948214C0F3512C73CF77
:1029F000522C5818821408F46ECFF8CF842D8678A4
:102A000009F47BCF8BE241FE80E247FC8DE2B70107
:102A100090E071CFB70180E390E00E942A159A946C
:102A20006CCF8FEF9FEF99CFFC0105906150704004
:102A30000110D8F7809590958E0F9F1F0895FC0187
:102A40006150704001900110D8F7809590958E0FDD
:102A50009F1F08950F931F93CF93DF93182F092F74
:102A6000EB018B8181FD09C01FEF0FEF812F902FAC
:102A7000DF91CF911F910F91089582FF14C02E8195
:102A80003F818C819D81281739073CF4E881F981C9
:102A9000CF0101969983888310838E819F8101964F
:102AA0009F838E83E3CFE885F985812F0995892B54
:102AB000A1F3DACFFA01AA27283051F1203181F1B0
:102AC000E8946F936E7F6E5F7F4F8F4F9F4FAF4F36
:102AD000B1E03ED0B4E03CD0670F781F891F9A1F49
:102AE000A11D680F791F8A1F911DA11D6A0F711DFD
:102AF000811D911DA11D20D009F468943F912AE009
:102B0000269F11243019305D3193DEF6CF010895F0
:102B1000462F4770405D4193B3E00FD0C9F7F6CF21
:102B2000462F4F70405D4A3318F0495D31FD4052E9
:102B3000419302D0A9F7EACFB4E0A695979587957F
:102B400077956795BA95C9F700976105710508955E
:102B50009B01AC010A2E069457954795379527950A
:102B6000BA95C9F7620F731F841F951FA01D0895A2
:102B700010E0C3E6D0E004C0FE010E9409112196D6
:0A2B8000C436D107C9F7F894FFCF5F
:102B8A00FF0000770380000000400014005400009A
:102B9A00000000A704A3047B043738392F343536E4
:102BAA002A3132332D43303D2B000000007C03D301
:102BBA00020903C9033A0318032C03000000006941
:102BCA00053C057F061205350522051305000000A0
:102BDA0000EE06D3027F06AB0406070809020304C7
:102BEA000553697374656D612041636365736F0092
:102BFA00496E677265736520636C6176653A003168
:102C0A0032333400426C6F71756561646F3A202506
:102C1A006C75730041636365736F2064656E6567E5
:102C2A0061646F0041636365736F20636F6E6365F0
:102C3A006469646F00496E74656E7465206F74729E
:062C4A00612076657A00AE
:00000001FF
