:100000000C9464010C9495010C9495010C94950149
:100010000C9495010C9495010C9495010C94950108
:100020000C9495010C9495010C9495010C949501F8
:100030000C9495010C94F30A0C9495010C94950181
:100040000C9495010C9495010C9495010C949501D8
:100050000C9495010C9495010C9495010C94A90AAB
:100060000C9495010C94BC0B0C94920B0C94950180
:100070000C9495010C9495010C9495010C949501A8
:100080000C9495010C9495010C9495010C94950198
:100090000C9495010C9495010C9495010C94F20B21
:1000A0000C9495010C9495010C9495010C94950178
:1000B0000C9495010C9495010C9495010C94950168
:1000C0000C9495010C9495010C9495010C94950158
:1000D0000C9495010C9495010C9495010C94950148
:1000E0000C9495010C943F070C94F5010C94BF01FE
:1000F0000C9432050C9469070C94C7010C94D4013C
:100100000C94E8010C94DA010C94C3010C94E20104
:100110000C9462070C94B5010C94FA010C94D0066F
:100120000C94F6010C94AC080C94D0010C94D806F5
:100130000C94EC010C94CA010C94DF080C941E057D
:100140000C94F8120C94A8060C94DE010C94D406BE
:100150000C940F050C94F0010C94D8040C944005F9
:100160000C9440070C94160D0C9496070C94D7042D
:100170000C94D9040C9478050C94BB010C944F0793
:100180000C94C505000020002300260029002C0047
:100190002F003200000100000301060109010000E8
:1001A0002100240027002A002D0030003300010127
:1001B0000000040107010A0100000A0B02090C0DEE
:1001C0000E0807030401000000000000000000000A
:1001D000000000000000000000000000000000001F
:1001E00000000000121110000000000000000000DC
:1001F00000000000000000000000000000000102FC
:100200001020200808102040102040800201020128
:1002100008040201010204081020408080402010E0
:100220000804020180040201804020100804020139
:1002300008040201010204081020408001020408A1
:100240001020408000002200250028002B002E00F6
:100250003100340002010000050108010B01050511
:100260000505070508080808020202020A0A08082C
:10027000040404040101010101010101030303035A
:1002800003030303040707070C0C0C0C0C0C0C0CE9
:100290000202020206060606060606060B0B0B0BFA
:1002A0000B0B0B0B02456E746572207061737377D4
:1002B0006F72643A0041636365737320537973749A
:1002C000656D0000160DF81211241FBECFEFD1E2AC
:1002D000DEBFCDBF00E00CBF24E0ACE9B2E001C05E
:1002E0001D92AC35B207E1F712E0A0E0B2E0EEEE0D
:1002F000F0E300E00BBF02C007900D92AC39B107EC
:10030000D9F711E0C3E6D1E000E006C0219701096A
:10031000802FFE010E945B13C236D10780E00807E0
:10032000A9F70E94E40D0C9465180C94000081500C
:10033000823108F05AC0E82FF0E08827ED55FE4FD3
:100340008F4F0C945B13C301C701B501BB01BF0103
:10035000F501CA01D001D401DA01DE01E201E801B0
:10036000EC01F501F001F601FA01809180008F7730
:10037000809380000895809180008F7DF9CF8091D7
:100380008000877FF5CF84B58F7784BD089584B5CD
:100390008F7DFBCF8091B0008F778093B000089560
:1003A0008091B0008F7DF9CF809190008F778093FE
:1003B00090000895809190008F7DF9CF80919000FA
:1003C000877FF5CF8091A0008F778093A00008955C
:1003D0008091A0008F7DF9CF8091A000877FF5CF1D
:1003E000809120018F7780932001089580912001D2
:1003F0008F7DF9CF80912001877FF5CF1F93CF9319
:10040000DF93282F30E0F901E854FE4F8491F90181
:10041000E250FE4FD491F901E25AFD4FC491CC2332
:10042000A9F0162F81110E949701EC2FF0E0EE0F3A
:10043000FF1FEC5BFD4FA591B4918FB7F894EC9141
:10044000111108C0D095DE23DC938FBFDF91CF91CF
:100450001F910895DE2BF8CFCF93DF9390E0FC013E
:10046000E250FE4F2491825A9D4FFC0184918823D3
:10047000C9F090E0880F991FFC01E256FE4FA5914C
:10048000B491FC01EC5BFD4FC591D49161110DC09D
:100490009FB7F8948C91209582238C938881282390
:1004A00028839FBFDF91CF910895623051F49FB7A9
:1004B000F8943C91822F809583238C93E8812E2B96
:1004C000EFCF8FB7F894EC912E2B2C938FBFEACF00
:1004D0008F929F92AF92BF92CF92DF92EF92FF9254
:1004E0000F931F93CF938C014A015B01809100020F
:1004F000893379F08F3F09F455C0CF911F910F9147
:10050000FF90EF90DF90CF90BF90AF909F908F9033
:100510000895E4EAF2E0C491C7FDEFCF61E089E31A
:100520000E942C02C11158C0980150E040E068E4DC
:1005300078EE81E090E00E943C1369017A0181E04D
:10054000C81AD108E108F10885B5887F836085BDA8
:10055000D801AA0FBB1FA50194010E94001328EE29
:1005600033E040E050E00E941A13C23009F449C160
:100570000CF07BC1CC2309F435C1C13009F0BDCFEB
:10058000D0928900C092880020937D0330937E032F
:1005900040937F035093800380916F00826080932B
:1005A0006F00ABCF89E380930002E4EAF2E0C491EC
:1005B0008C2FCF3F09F4A1CFC23009F482C030F5AF
:1005C000CC2309F448C0C13009F45DC087FD95CF44
:1005D00061E089E30E942C02980150E040E0C230C3
:1005E00009F0CEC060E970ED83E090E00E943C131A
:1005F00069017A0181E0C81AD108E108F108809107
:10060000B100887F83608093B100A2CFC43009F429
:1006100099C008F478C0C530C9F610922001109234
:100620002101809121018860809321018091210125
:10063000816080932101E7E9F2E0E491F0E0EE0FC0
:10064000FF1FEC5BFD4F85919491E7E3F2E0E491AD
:10065000E093650363CF14BC15BC84B5826084BD90
:1006600085B5816085BDE7E9F2E0E491F0E0EE0F49
:10067000FF1FEC5BFD4F85919491E7E3F2E0E4917D
:10068000E0936C034BCF1092800010928100809118
:1006900081008860809381008091810081608093D7
:1006A0008100E7E9F2E0E491F0E0EE0FFF1FEC5B80
:1006B000FD4F85919491E7E3F2E0E491E0936B03C1
:1006C0002DCF1092B0001092B1008091B0008260E6
:1006D0008093B0008091B10081608093B100E7E920
:1006E000F2E0E491F0E0EE0FFF1FEC5BFD4F85912F
:1006F000949190936A0380936903E7E3F2E0E491B5
:10070000E09368030BCF10929000109291008091BB
:100710009100886080939100809191008160809326
:100720009100E7E9F2E0E491F0E0EE0FFF1FEC5BEF
:10073000FD4F85919491E7E3F2E0E491E093670344
:10074000C3E0ECCE1092A0001092A1008091A10015
:1007500088608093A1008091A10081608093A100B6
:10076000E7E9F2E0E491F0E0EE0FFF1FEC5BFD4FF4
:1007700085919491E7E3F2E0E491E0936603CECEB5
:1007800060E072E18AE790E00E943C1369017A011F
:1007900081E0C81AD108E108F108C13039F480912C
:1007A0008100887F816080938100D2CEC33039F48C
:1007B00080919100887F816080939100C9CEC43080
:1007C00039F48091A100887F81608093A100C0CE20
:1007D000C53009F0BDCE80912101887F8160809372
:1007E0002101B6CEC7BC209381033093820340938E
:1007F00083035093840380916E00826080936E0027
:100800007CCEC092B3002093790330937A03409357
:100810007B0350937C038091700082608093700012
:100820006CCED0929900C0929800209375033093BB
:100830007603409377035093780380917100826030
:10084000809371005ACED092A900C092A800209344
:100850007103309372034093730350937403809138
:10086000720082608093720048CEC43061F3CCF293
:10087000C53009F042CED0922901C09228012093C0
:100880006D0330936E0340936F0350937003809118
:10089000730082608093730030CE3FB7F8948091EC
:1008A000610390916203A0916303B091640326B544
:1008B000A89B05C02F3F19F00196A11DB11D3FBF98
:1008C000BA2FA92F982F8827BC01CD01620F711D67
:1008D000811D911D42E0660F771F881F991F4A9561
:1008E000D1F708958F929F92AF92BF92CF92DF92ED
:1008F000EF92FF924B015C010E944D046B017C0161
:100900000E944D046C197D098E099F09683E734051
:1009100081059105A8F321E0821A9108A108B10888
:1009200088EEC80E83E0D81EE11CF11C81149104EE
:10093000A104B10429F7FF90EF90DF90CF90BF9012
:10094000AF909F908F9008952FB7F89460915D03BA
:1009500070915E0380915F03909160032FBF0895B3
:100960000F931F930E94A404009144041091450426
:100970002091460430914704601B710B820B930B4E
:10098000603177428105910580F010924304109206
:1009900042041092440410924504109246041092AE
:1009A000470480E01F910F91089581E0FBCF0895E7
:1009B0000895AF92BF92CF92DF92EF92FF920F9382
:1009C0001F93CF93DF936C017B018B01040F151FE5
:1009D000EB015E01AE18BF08C017D10759F069914D
:1009E000D601ED91FC910190F081E02DC6011995A1
:1009F000892B79F7C501DF91CF911F910F91FF905E
:100A0000EF90DF90CF90BF90AF900895FC014481AC
:100A100055816081718188E494E00C94D904FC01D3
:100A2000538D448D252F30E0842F90E0821B930B53
:100A3000541710F0CF96089501970895FC01918DF9
:100A4000828D981761F0A28DAE0FBF2FB11D5D96FC
:100A50008C91928D9F5F9F73928F90E008958FEF9E
:100A60009FEF0895FC01918D828D981731F0828D52
:100A7000E80FF11D858D90E008958FEF9FEF0895A9
:100A8000FC01918D228D892F90E0805C9F4F821B0D
:100A900091098F739927089585E893E00E94400596
:100AA00021E0892B09F420E0822F0895FC01A48D18
:100AB000A80FB92FB11DA35ABF4F2C91848D90E080
:100AC00001968F739927848FA689B7892C93A08963
:100AD000B1898C91837080648C93938D848D9813ED
:100AE00006C00288F389E02D80818F7D8083089580
:100AF000EF92FF920F931F93CF93DF93EC0181E06E
:100B0000888F9B8D8C8D98131AC0E889F989808114
:100B100085FF15C09FB7F894EE89FF896083E88947
:100B2000F98980818370806480839FBF81E090E039
:100B3000DF91CF911F910F91FF90EF900895F62EC6
:100B40000B8D10E00F5F1F4F0F731127E02E8C8D60
:100B50008E110CC00FB607FCFACFE889F9898081A5
:100B600085FFF5CFCE010E945605F1CFEB8DEC0F3E
:100B7000FD2FF11DE35AFF4FF0829FB7F8940B8FC2
:100B8000EA89FB8980818062CFCFCF93DF93EC012C
:100B9000888D8823B9F0AA89BB89E889F9898C9165
:100BA00085FD03C0808186FD0DC00FB607FCF7CF21
:100BB0008C9185FFF2CF808185FFEDCFCE010E9421
:100BC0005605E9CFDF91CF91089580E090E0892B21
:100BD00029F00E944C0581110E94000080E090E005
:100BE000892B49F080E090E0892B29F00E940000D9
:100BF00081110E94000080E090E0892B49F080E0A4
:100C000090E0892B29F00E94000081110E940000D1
:100C100080E090E0892B49F080E090E0892B29F07A
:100C20000E94000081110C9400000895CF93DF937F
:100C3000DC0126E0629FA00DB11D112490965C930B
:100C40004E935F9721E091962C939197FC01E35985
:100C5000FF4F0190F081E02DEC01C459DF4F288156
:100C6000222341F0309719F0DC01662329F0DF914F
:100C7000CF9108953097D9F35C968C91DF91CF9105
:100C80001994CF92DF92EF92FF920F931F93CF931D
:100C9000DF93EC01162F042FFC0186E0689FE00D26
:100CA000F11D112411A2878D90A18130910509F1C8
:100CB00080F08230910509F443C0039709F445C0E0
:100CC000DF91CF911F910F91FF90EF90DF90CF9028
:100CD00008954423A9F341E050E0CE010E94160696
:100CE0000E94A404C85ADF4F688379838A839B8358
:100CF000E7CF0E94A404FE01E85AFF4FC080D180D4
:100D0000E280F380AB01BC014C195D096E097F09DB
:100D1000729680819181B0E0A0E084179507A607C4
:100D2000B70770F442E050E0612FCE01DF91CF9120
:100D30001F910F91FF90EF90DF90CF900C941606CB
:100D400043E050E00111BCCFEFCF50E040E0ECCFEA
:100D5000CF93DF9370E0FB01E854FE4F8491FB01D9
:100D6000E250FE4FD491625A7D4FFB01C491CC23D7
:100D7000A1F081110E949701EC2FF0E0EE0FFF1F10
:100D8000EC57FE4FA591B491EC91ED2381E090E0FA
:100D900009F480E0DF91CF91089580E090E0FACFF0
:100DA000862F642F0C94FE01862F642F0C942C0246
:100DB00008952091DD02260F3327331F213231059C
:100DC000ECF420912603FC0190E080E0243069F0EF
:100DD00082E00895A091DD022191AC0143545D4F62
:100DE000A40FB52FB11D2C930196861798F380910F
:100DF000DD02680F6093DD0280E0089581E00895D0
:100E00001092260381E0809325031092000361E095
:100E100084E10E94FE0161E085E10E94FE01E9EBB0
:100E2000F0E080818E7F808380818D7F808388E465
:100E30008093B80085E48093BC000895CF93DF933E
:100E400091E09093BC028823B9F0C091B800D09192
:100E5000BA008091BC008A7B8093BC0060E084E192
:100E60000E94FE0160E085E10E94FE010E940007F1
:100E7000D093BA00C093B800DF91CF910895089540
:100E8000E091550380915403E81730F4F0E0E45604
:100E9000FD4F808190E008958FEF9FEF089590912E
:100EA0005503809154032FEF3FEF981748F4E92F33
:100EB000F0E0E456FD4F208130E09F5F90935503B2
:100EC000C90108958091540390915503891B990B92
:100ED0000895CF92DF92EF92FF920F931F93CF93DB
:100EE000DF937C01CB018A0120912C03222389F01E
:100EF000EB016B01C40ED51ECC15DD0569F06991BF
:100F0000D701ED91FC910190F081E02DC701199579
:100F1000F3CF642F0E94D906C801DF91CF911F91B2
:100F20000F91FF90EF90DF90CF900895CF93DF93D4
:100F30001F92CDB7DEB7698320912C032223F9F0ED
:100F400020915203203258F021E030E0FC0133833D
:100F5000228390E080E00F90DF91CF9108958091FF
:100F60005303E82FF0E0E35DFC4F998190838F5F9E
:100F7000809353038093520381E090E0ECCF61E0D3
:100F8000CE0101960E94D906F7CFCF92DF92EF9261
:100F9000FF920F931F93CF93DF93FC01C48121E055
:100FA00020932C03C0934D031092530310925203CD
:100FB0008385682B82E294E00E949607D0915203C9
:100FC000D13208F092C00E944D046B017C018091E7
:100FD0002603811165C082E08093260381E080931F
:100FE00025038FEF8093240310922303D0932203D1
:100FF000ADE2B3E0E2E0F3E080E0D81385C0109208
:10100000010380910103CC0FC82BC0930103809191
:101010000003813009F07CC0109200030E944D044F
:101020006B017C01809101038093BB0080912803B8
:1010300090912903A0912A03B0912B03892B8A2B2D
:101040008B2B99F00E944D040091280310912903E5
:1010500020912A0330912B036C197D098E099F0979
:101060000617170728073907E0F18091BC0083FDB8
:10107000D9CF85EC8093BC000E944D046B017C01AC
:1010800080912603823009F445C0809124038F3F6C
:1010900061F180912403803241F18091240325C0C5
:1010A0008091280390912903A0912A03B0912B03EA
:1010B000892B8A2B8B2B09F48ACF0E944D04009137
:1010C00028031091290320912A0330912B036C19D6
:1010D0007D098E099F09061717072807390708F0A9
:1010E00076CF809127030E941E071092530310921F
:1010F000520310922C03DF91CF911F910F91FF901B
:10110000EF90DF90CF9008959D9191938F5F75CF71
:1011100085EEB0CF8091280390912903A0912A03F6
:10112000B0912B03892B8A2B8B2B09F4A9CF0E941A
:101130004D04009128031091290320912A03309136
:101140002B036C197D098E099F09061717072807BD
:10115000390708F095CFC5CF90E080E008950F9350
:101160001F93CF938C01C62F0E94C5076C2F64601C
:10117000C8010E94C5076C2F6B7FC8010E94C5077C
:1011800083EC90E00197F1F7CF911F910F910895B3
:101190000F931F93CF93DF938C01D62FC42F607FC3
:1011A000642B0E94AF0880E1D89FB00111246C2B02
:1011B000C801DF91CF911F910F910C94AF0841E0CE
:1011C0000E94C80881E090E008950F931F93CF9389
:1011D000DF938C01D0E0C0E0F801EC0FFD1F6491BB
:1011E000662339F041E088E494E00E94C808219623
:1011F000F3CFCE01DF91CF911F910F910895CF933F
:10120000DF9300D000D01F921F92CDB7DEB798E0D9
:10121000E7E0F2E0DE01119601900D929A95E1F778
:1012200090915004981708F48FEF90E0880F991F61
:1012300021E030E02C0F3D1F820F931FFC016081E5
:10124000606840E088E494E028960FB6F894DEBF2A
:101250000FBECDBFDF91CF910C94C80840E061E094
:1012600088E494E00E94C8088BE39FE10197F1F7BE
:1012700008950E942E0980E00E94FF0885EB92E00D
:101280000E94E50881E00E94FF0885EA92E00C9444
:10129000E508FC0180819181009711F00C94FF1307
:1012A00008950F931F93CF93DF93EC018881998169
:1012B000009759F02A813B812617370730F081E0EB
:1012C000DF91CF911F910F9108958B016F5F7F4F39
:1012D0000E948814009759F0998388831B830A839E
:1012E0002C813D81232B59F7FC011082E8CF80E04F
:1012F000E7CFEF92FF920F931F93CF93DF931F924D
:101300001F92CDB7DEB78C0169831A82FC01E4809D
:10131000F580FFEFEF1AFF0AB7010E9451098823F9
:1013200081F0F8012081318184819581BE016F5F58
:101330007F4F820F931F0E947B15F801F582E48294
:1013400081E00F900F90DF91CF911F910F91FF904F
:10135000EF900895EF92FF920F931F93CF93DF9337
:10136000EC017B018A01BA010E945109288139816F
:10137000811114C02115310519F0C9010E94FF1314
:10138000198218821D821C821B821A82CE01DF9173
:10139000CF911F910F91FF90EF9008951D830C83C3
:1013A000B701C9010E947B15F1CFFB01019000201C
:1013B000E9F73197AF01461B570B0C94AA09FC01C2
:1013C000118210821382128215821482FB01019015
:1013D0000020E9F73197AF01461B570B0C94AA097F
:1013E000DF92EF92FF920F931F93CF93DF93EC0165
:1013F0007B0165E672E00E94DF09D70114960D912A
:101400001C9101151105E1F00031110510F000E10A
:1014100010E0D701ED91FC911197E00FF11FD08002
:1014200010826D917C916115710599F0CE010E9439
:10143000D509F70180819181080F191FD801DC922D
:10144000CE01DF91CF911F910F91FF90EF90DF9030
:10145000089588819981009711F00E94FF131982E5
:1014600018821D821C821B821A82E3CFEF92FF92A8
:101470000F931F93CF93DF9300D000D0CDB7DEB78B
:101480007C018B010E942E0980E00E94FF08B701B9
:10149000CE0101960E94F009CE0101960E94060538
:1014A000CE0101960E94490981E00E94FF08B8011F
:1014B000CE0101960E94F009CE0101960E94060518
:1014C000CE0101960E94490926960FB6F894DEBF18
:1014D0000FBECDBFDF91CF911F910F91FF90EF9085
:1014E000089585ED8093BC00809128039091290395
:1014F000A0912A03B0912B030796A11DB11D23E0F3
:10150000B695A795979587952A95D1F72091BC0018
:1015100024FD03C0109226030895409128035091A2
:10152000290360912A0370912B03452B462B472BEF
:1015300069F30097A105B10541F02AE22A95F1F778
:1015400000C00197A109B109E1CF809127030C9454
:101550001E071F920F920FB60F9211242F933F93E5
:101560008F939F93AF93BF9380915D0390915E03A0
:10157000A0915F03B091600330915C0323E0230FDF
:101580002D3758F50196A11DB11D20935C03809362
:101590005D0390935E03A0935F03B093600380911B
:1015A000610390916203A0916303B091640301967B
:1015B000A11DB11D8093610390936203A093630307
:1015C000B0936403BF91AF919F918F913F912F9101
:1015D0000F900FBE0F901F90189526E8230F0296CC
:1015E000A11DB11DD2CF1F920F920FB60F921124E1
:1015F0000BB60F922F933F934F935F936F937F930D
:101600008F939F93AF93BF93EF93FF938091790351
:1016100090917A03A0917B03B0917C03892B8A2B54
:101620008B2BE1F190916803E0916903F0916A03DB
:101630008081892780838091790390917A03A0919A
:101640007B03B0917C03181619061A061B069CF43E
:101650008091790390917A03A0917B03B0917C03F0
:101660000197A109B1098093790390937A03A0931C
:101670007B03B0937C03FF91EF91BF91AF919F915A
:101680008F917F916F915F914F913F912F910F902B
:101690000BBE0F900FBE0F901F9018958091000207
:1016A000E4EAF2E0E4919FEF90930002E230E9F087
:1016B00040F4EE2389F0E13091F060E00E94FE01F9
:1016C000DACFE43049F110F1E530B9F790917300C9
:1016D0009D7F90937300F1CF10926E00EECF9091AA
:1016E0006F009D7F90936F00E8CF909170009D7F79
:1016F0009093700091E09093B0009091B100987F2A
:1017000094609093B1001092B300D7CF9091710084
:101710009D7F90937100D1CF909172009D7F9093A7
:101720007200CBCF1F920F920FB60F9211240BB6FF
:101730000F922F933F934F935F936F937F938F936A
:101740009F93AF93BF93EF93FF9385E893E00E943D
:101750005605FF91EF91BF91AF919F918F917F912E
:101760006F915F914F913F912F910F900BBE0F9012
:101770000FBE0F901F9018951F920F920FB60F92E9
:1017800011240BB60F922F938F939F93EF93FF9398
:10179000E0919503F09196038081E0919B03F09195
:1017A0009C0382FD1DC0908180919E038F5F8F738B
:1017B00020919F03821741F0E0919E03F0E0EB57E8
:1017C000FC4F958F80939E03FF91EF919F918F9196
:1017D0002F910F900BBE0F900FBE0F901F9018957A
:1017E0008081F2CF1F920F920FB60F9211240BB689
:1017F0000F922F933F934F935F936F937F938F93AA
:101800009F93AF93BF93EF93FF938091B900887F2D
:10181000803609F44DC008F040C0883209F4A9C0F0
:1018200028F5803109F49DC0C8F4882309F4FBC071
:10183000883009F496C0FF91EF91BF91AF919F91CD
:101840008F917F916F915F914F913F912F910F9069
:101850000BBE0F900FBE0F901F901895883109F4A2
:1018600088C0803241F78093240314C0803409F487
:101870009DC040F48033B9F38833E9F680932403A4
:1018800085ECB0C0803509F485C0883509F496C070
:10189000883489F60E94710ACECF883909F48CC049
:1018A00038F5883729F050F4883611F0803719F66A
:1018B00083E0809326031092FF0257C0883809F412
:1018C0007BC0803919F0803809F0B5CF8091FF02D4
:1018D000803208F071C0E091FF0281E08E0F8093AA
:1018E000FF028091BB00F0E0E152FD4F80833DC0DC
:1018F000803B39F0E0F4803A09F479C0883A09F085
:101900009ACF84E0809326031092DE021092DD02CB
:10191000E0915003F091510319958091DD028111FE
:101920000FC081E08093DD021092BD0209C0803CAF
:1019300009F4A6CF883C09F4A3CF883B09F07BCFFC
:10194000E091DE0281E08E0F8093DE02F0E0E3544E
:10195000FD4F80818093BB009091DE028091DD027B
:1019600029C0809101038093BB0085EC8093BC006B
:1019700062CF9091230380912203981758F5E0914C
:10198000230381E08E0F80932303F0E0EE5FFC4F92
:101990008081E9CFE091230381E08E0F80932303C0
:1019A0008091BB00F0E0EE5FFC4F808390912303B9
:1019B000809122039817C8F285E8D8CFE0912303DD
:1019C00081E08E0F809323038091BB00F0E0EE5FF7
:1019D000FC4F80838091250381115CCF81E080934F
:1019E000000384EA8093BC001092260324CF85EC88
:1019F0008093BC00109226038091FF02803230F465
:101A0000E091FF02F0E0E152FD4F10826091FF0291
:101A100070E0E0914E03F0914F038FED92E0199545
:101A20001092FF0208CF1092240334CFCF93DF939C
:101A300000D000D0CDB7DEB7109288031092870394
:101A400088EE93E0A0E0B0E08093890390938A034E
:101A5000A0938B03B0938C032DE232E03093860386
:101A60002093850325EC30E030939203209391037B
:101A700024EC30E0309394032093930320EC30E087
:101A8000309396032093950321EC30E03093980334
:101A90002093970322EC30E030939A03209399032C
:101AA00026EC30E030939C0320939B0310929E031E
:101AB00010929F031092A0031092A103109225048C
:101AC000109224048093260490932704A093280462
:101AD000B09329048FE392E090932304809322042F
:101AE0008DE592E0909355048093540489E592E04B
:101AF000909357048093560482E08093320496E0DA
:101B000090932E0493E09093330497E090932F04E6
:101B100094E09093340498E09093300495E090938F
:101B2000350499E09093310410924B0410924A04CA
:101B300021E532E030934904209348049FE39093D9
:101B40004C0490E1909351048093520410925304FA
:101B500061E672E0CE0101960E94DF0910923D0419
:101B600010923C0410923F0410923E0410924104E3
:101B70001092400469817A816115710531F04D81BF
:101B80005E818CE394E00E94AA09109243041092B3
:101B9000420410924404109245041092460410929C
:101BA0004704CE0101960E94490965E672E086E38A
:101BB00094E00E94DF0926960FB6F894DEBF0FBEB0
:101BC000CDBFDF91CF910895CF93DF93CDB7DEB72F
:101BD000A7970FB6F894DEBF0FBECDBF789484B53B
:101BE000826084BD84B5816084BD85B5826085BD19
:101BF00085B5816085BD80916E00816080936E00A7
:101C00001092810080918100826080938100809198
:101C10008100816080938100809180008160809349
:101C200080008091B10084608093B1008091B00009
:101C300081608093B00080919100826080939100D8
:101C400080919100816080939100809190008160EB
:101C5000809390008091A10082608093A100809188
:101C6000A10081608093A1008091A0008160809399
:101C7000A000809121018260809321018091210147
:101C800081608093210180912001816080932001F7
:101C900080917A00846080937A0080917A008260DB
:101CA00080937A0080917A00816080937A0080919D
:101CB0007A00806880937A001092C10061E088E326
:101CC0000E942C0261E089E30E942C0260E088E31C
:101CD0000E94FE0160E089E30E94FE01E09195030D
:101CE000F091960382E08083E0919103F09192035A
:101CF0001082E0919303F09194038FEC8083109213
:101D00009D03E0919903F0919A0386E08083E0912E
:101D10009703F0919803808180618083E09197031D
:101D2000F0919803808188608083E0919703F0911F
:101D30009803808180688083E0919703F0919803F5
:101D400080818F7D80838091560390915703892BEA
:101D500009F052C08FE690E00E946313FC011282EA
:101D600016821582178283E192E091838083DF01DE
:101D70005C96CD01CC961C9214961C921E921397E1
:101D800015961C9215971696A817B907A1F7DF01AB
:101D9000AE59BF4F82E394E011969C938E931296B6
:101DA0008EE294E011969C938E93129684E08C932D
:101DB00011968C93179789E192E011969C938E93DC
:101DC00018968AE090E011969C938E93129684EF79
:101DD00091E011969C938E93139611961C921E92ED
:101DE00051971D921D921D921C92139750961C9212
:101DF000F0935703E0935603109255031092540347
:101E000010925303109252030E94000787ED94E052
:101E1000909351038093500388ED94E090934F0387
:101E200080934E0310924D0480915204823018F03A
:101E300098E090934D048093500462E370E080E05A
:101E400090E00E9472046091530488E494E00E9440
:101E5000C50768EE73E080E090E00E94720460E3E2
:101E600088E494E00E94AF080BE416E4C8010197EF
:101E7000F1F760E388E494E00E94AF08C80101979D
:101E8000F1F760E388E494E00E94AF0883E592E014
:101E90000197F1F760E288E494E00E94AF08609156
:101EA0004D04606240E088E494E00E94C80884E049
:101EB00080934E0440E06CE088E494E00E94C808FF
:101EC0000E942E0982E080934F0440E066E088E49F
:101ED00094E00E94C80840E062E088E494E00E9438
:101EE000C8088BE39FE10197F1F788E080935304E2
:101EF00060E088E494E00E94C5070E9439090E94CE
:101F000039099E012F5F3F4F6901809144049091F0
:101F10004504A0914604B0914704892B8A2B8B2B52
:101F200009F494C00E94B004882309F48FC0809102
:101F3000440490914504A0914604B0914704892B34
:101F40008A2B8B2B09F05BC080914404909145044F
:101F5000A0914604B0914704892B8A2B8B2B09F062
:101F600053C080E090E0DC01BC01CD0169517C4FA1
:101F70008F4F9F4F28EE33E040E050E00E941A134D
:101F80005F934F933F932F9346E652E05F934F93B7
:101F90001F9281E18F93DF92CF920E948215B6014A
:101FA000CE0142960E94DF0964E772E0CE014896B6
:101FB0000E94DF09BE016E5E7F4FCE0148960E94EF
:101FC000360ACE0148960E944909CE0142960E94E7
:101FD000490944E650E060E070E088EE93E00E943A
:101FE000680264EF71E080E090E00E9472040FB636
:101FF000F894DEBF0FBECDBF0E94E50586CF0E94DC
:10200000B004882309F4A0CF0E94A40400914404E2
:10201000109145042091460430914704DC01CB0126
:10202000801B910BA20BB30B803137E29307A10504
:10203000B10508F096CF20E137E240E050E0281BE0
:10204000390B4A0B5B0BDA01C9018ECF00915603A5
:10205000109157030115110509F46FC1F801E459F6
:10206000FF4FF9A3E8A381E080830E94A4049801B4
:10207000245A3F4F3BA32AA3D9018D909D90AD9048
:10208000BC90AB01BC01481959096A097B09F801E8
:10209000E859FF4F80819181B0E0A0E08417950757
:1020A000A607B70708F061C1B12C3297FF8FEE8FFA
:1020B0007801F2E6EF0EF11CAE8DBF8D8C91B81653
:1020C00098F4F701A081B181CD018B0D911DD8014C
:1020D000ED91FC910190F081E02D42E0DC016C91EA
:1020E000C8011995B394E8CF312CF801E959FF4F95
:1020F000FDA3ECA32801F4E64F0E511C98012E59C4
:102100003F4F3FA32EA3ACA1BDA18C91381608F080
:102110007FC0A32CB12CF201A081B181CD018A0D29
:102120009B1DD801ED91FC910190F081E02D41E0E3
:10213000DC016C91C8011995F201A081B181CD013A
:102140008A0D9B1DD801ED91FC910280F381E02D59
:1021500040E0DC016C91C801199581E090E0A0E0BD
:10216000B0E0032C04C0880F991FAA1FBB1F0A945C
:10217000D2F73C014C0180949094212CD801ED9130
:10218000FC91AE8DBF8D8C91281618F5E22CF12CA8
:10219000AEA1BFA18D919C91DC01AE0DBF1D04804D
:1021A000F581E02D6C91C8011995EE0CFF1CF8012A
:1021B000EE0DFF1D892B41F4808591858629972995
:1021C000918780872394DACF808591858821992112
:1021D000F7CFD2018D919C91DC01AA0DBB1D02802D
:1021E000F381E02D41E06C91C8011995F2018081E5
:1021F0009181A80EB91ED801ED91FC910190F0815A
:10220000E02D40E0D5016C91C801199533947BCF46
:102210005801C801CC967801F701278D30A1232BF6
:1022200031F4148E2FEF3FEF368F258F11A236E059
:10223000E30EF11C8E159F0579F7912C280140E6DD
:10224000440E511CAE8DBF8D8C91981608F054C071
:10225000812C692C712CB4E06B0E711C660C771C00
:10226000600E711EECA1FDA18081881608F042C0AD
:10227000D3014D915C91082C02C0569547950A9464
:10228000E2F7989EC0011124880D911DF80160E0CD
:10229000258D368D8217930709F466C16F5F3696D8
:1022A0006A30B1F740FF24C0F80170E060E0248D8F
:1022B000211118C0D201ED91FC91E80FF91F208186
:1022C000B6E0B69FF001B79FF00D1124E00FF11FAB
:1022D000248F968F858F10A2178E41E0C8010E942F
:1022E000410606C06F5F7F4F36966A307105F9F67A
:1022F0008394B8CF9394A6CF912CF50181A181113D
:10230000982EF6E0AF0EB11CAE14BF04B1F70E94D8
:10231000A404AAA1BBA16D937D938D939C93139765
:10232000992019F1F80181A18823F9F0878D90A1F6
:102330000197D9F4148D11111CC065E672E0CE012D
:1023400042960E94DF0910E000E080913A049091EB
:102350003B040817190708F0BFC06AE2CE01429695
:102360000E9479090F5F1F4FF0CFA8A1B9A11C925D
:10237000E4CF0E94A40460935803709359038093A0
:102380005A0390935B03133439F465E672E086E3F5
:1023900094E00E94D509D1CF80913A0490913B04FA
:1023A0001D3309F090C0892B41F280914404909133
:1023B0004504A0914604B0914704892B8A2B8B2BAE
:1023C00011F520913A0430913B04809140049091A2
:1023D00041042817390709F05FC0809136049091B5
:1023E000370460913C0470913D04009709F4BEC02D
:1023F0006115710509F04DC0232B09F4C5C0DC013E
:102400008C9190E0BEC00E94B0048823D1F261E9B3
:1024100072E0C6010E94DF0964E772E0CE014296D5
:102420000E94DF09B601CE0142960E94360ACE0113
:1024300042960E944909C6010E94490948E750E0B6
:1024400060E070E080ED97E00E94680266E970E06D
:1024500080E090E00E94720448E750E060E070E0A5
:1024600080ED97E00E94680266E970E080E090E00D
:102470000E94720465E672E086E394E00E94D5094A
:1024800068EE73E080E090E00E9472040E943909D7
:1024900054CF0E94721575C08091420490914304FC
:1024A0000196909343048093420403970CF4AFCFBA
:1024B0000E94A404609344047093450480934604EE
:1024C00090934704A4CF089708F037CF612F86E395
:1024D00094E00E94790931CF81E00E94FF081A82BE
:1024E00019821C821B821E821D826A897B8961156A
:1024F000710529F04E895F89C6010E94AA098D8164
:102500009E81409728F460E2C6010E947909F7CFC6
:10251000C6010E940605C6010E94490980913A043D
:1025200090913B04892BD9F00E94A4040091580398
:102530001091590320915A0330915B03601B710B7A
:10254000820B930B693873418105910540F065E674
:1025500072E086E394E00E94D5090E943909CE0119
:1025600042960E94490948CD4170B8CE6115710567
:1025700059F0232B49F0FB01808190E091958195E2
:102580009109892B09F088CF1092430410924204DC
:10259000109244041092450410924604109247048D
:1025A00065E672E0C6010E94DF0962E872E0CE01D2
:1025B00042960E94DF09B601CE0142960E94360A79
:1025C000CE0142960E944909C6010E94490961E074
:1025D00088E30E94FE0168E873E180E090E00E94D9
:1025E000720460E088E30E94FE010E943909CDCEAA
:1025F00086E394E00E9449098CE394E00C94490935
:102600000E940B13A59F900DB49F900DA49F800D69
:10261000911D11240895A29FB001B39FC001A39FF3
:10262000700D811D1124911DB29F700D811D11240B
:10263000911D0895A1E21A2EAA1BBB1BFD010DC01E
:10264000AA1FBB1FEE1FFF1FA217B307E407F50762
:1026500020F0A21BB30BE40BF50B661F771F881F3E
:10266000991F1A9469F760957095809590959B01D4
:10267000AC01BD01CF010895052E97FB1EF4009417
:102680000E94531357FD07D00E941A1307FC03D072
:102690004EF40C94531350954095309521953F4F2F
:1026A0004F4F5F4F089590958095709561957F4F3E
:1026B0008F4F9F4F0895EE0FFF1F881F8BBF07900E
:1026C000F691E02D19940F931F93CF93DF938230EF
:1026D000910510F482E090E0E0915A04F0915B04DF
:1026E00030E020E0B0E0A0E0309799F4211531050A
:1026F00009F44AC0281B390B24303105D8F58A81EA
:102700009B816115710589F1FB0193838283FE0131
:1027100011C0408151810281138148175907E0F0AF
:102720004817590799F4109761F012960C93129775
:1027300013961C933296CF01DF91CF911F910F9189
:10274000089500935A0410935B04F4CF21153105CA
:1027500051F04217530738F0A901DB019A01BD017E
:10276000DF01F801C1CFEF01F9CF90935B048093B3
:102770005A04CDCFFE01E20FF31F819391932250B3
:10278000310939832883D7CF2091580430915904D7
:10279000232B41F420910302309104023093590419
:1027A0002093580420910102309102022115310535
:1027B00041F42DB73EB74091050250910602241B0B
:1027C000350BE0915804F0915904E217F307A0F497
:1027D0002E1B3F0B2817390778F0AC014E5F5F4F77
:1027E0002417350748F04E0F5F1F5093590440934C
:1027F0005804819391939FCFF0E0E0E09CCFCF937A
:10280000DF930097E9F0FC01329713821282A091C6
:102810005A04B0915B04ED0130E020E01097A1F480
:1028200020813181820F931F2091580430915904E7
:102830002817390709F061C0F0935904E093580450
:10284000DF91CF910895EA01CE17DF07E8F54A81BD
:102850005B819E0141155105B1F7E901FB83EA83D4
:1028600049915991C40FD51FEC17FD0761F4808180
:1028700091810296840F951FE90199838883828153
:1028800093819B838A83F0E0E0E012968D919C9186
:1028900013970097B9F52D913C911197CD010296B0
:1028A000820F931F2091580430915904281739073B
:1028B00039F6309751F510925B0410925A04B09398
:1028C0005904A0935804BCCFD383C2834081518163
:1028D000840F951FC817D90761F44E5F5F4F888139
:1028E0009981480F591F518340838A819B8193832B
:1028F00082832115310509F0B0CFF0935B04E0939A
:102900005A049ECFFD01DC01C0CF13821282D7CFC3
:102910004F925F926F927F928F929F92AF92BF92EF
:10292000CF92DF92EF92FF920F931F93CF93DF939B
:102930008C01009799F4CB01DF91CF911F910F91FA
:10294000FF90EF90DF90CF90BF90AF909F908F90CF
:102950007F906F905F904F900C946313FC01E60F93
:10296000F71F9C0122503109E217F30708F4AEC0AB
:10297000D901CD91DC911197C617D70720F1C53049
:10298000D10578F0CE0104978617970750F0C61B43
:10299000D70B2297C193D1936D937C93CF010E9463
:1029A000FF13C801DF91CF911F910F91FF90EF901E
:1029B000DF90CF90BF90AF909F908F907F906F905F
:1029C0005F904F9008955B01AC1ABD0A4C018C0ECC
:1029D0009D1EA0915A04B0915B04512C412CF12C06
:1029E000E12C109731F58091580490915904881585
:1029F000990509F05CC04616570608F058C080914A
:102A0000010290910202009741F48DB79EB7409168
:102A1000050250910602841B950BE817F90708F090
:102A200055C0F0935904E0935804F9017183608311
:102A3000B8CF8D919C91119712966C901297139626
:102A40007C901397A815B90559F56C0142E0C40EA6
:102A5000D11CCA14DB0420F1AC014A195B09DA016C
:102A60001296159780F06282738251834083D90158
:102A70006D937C93E114F10471F0D7011396FC93EC
:102A8000EE9312978ECF22968C0F9D1FF9019183A2
:102A90008083F301EFCFF0935B04E0935A0481CF7E
:102AA0004816590608F42C017D01D3019ACFCB01B9
:102AB0000E9463137C01009749F0AE01B8010E94A7
:102AC0006915C8010E94FF1387016BCF10E000E079
:102AD00068CFFB01DC0102C001900D9241505040D3
:102AE000D8F70895FB01DC018D9101908019011048
:102AF000D9F3990B0895FB01DC0101900D920020A0
:102B0000E1F708950F931F93CF93DF93CDB7DEB70F
:102B10002E970FB6F894DEBF0FBECDBF0E891F896A
:102B2000888D998D26E02C831A83098397FF02C034
:102B300080E090E801979E838D83AE01445E5F4FF5
:102B40006A8D7B8DCE0101960E94BF154D815E81FD
:102B500057FD0AC02F813885421753070CF49A019C
:102B6000020F131FF80110822E960FB6F894DEBFE5
:102B70000FBECDBFDF91CF911F910F9108952F927E
:102B80003F924F925F926F927F928F929F92AF92FD
:102B9000BF92CF92DF92EF92FF920F931F93CF934A
:102BA000DF9300D000D000D01F921F92CDB7DEB7C8
:102BB0007C013B018A01FC0117821682838181FF1F
:102BC000DDC1CE0101965C01F7019381F30193FD14
:102BD000859193FF81913F01882309F453C1853288
:102BE00039F493FD859193FF81913F01853229F45A
:102BF000B70190E00E94D717E7CF912C212C312C00
:102C0000FFE1F31538F08B3211F190F4803209F1C5
:102C1000833229F137FC3CC020ED280F2A3050F5D3
:102C200036FE20C08AE0989E200D1124922E06C008
:102C30008D3291F0803371F7689430F8F30193FD91
:102C4000859193FF81913F018111DACF21C0689472
:102C500031F8689432F8F2CF689433F8EFCF689483
:102C600034F8ECCFEAE02E9E200D1124222E689439
:102C700035F8E4CF8E3229F436FC04C1689436F876
:102C8000DDCF8C3619F4689437F8D8CF8836B1F296
:102C9000982F9F7D95549330E0F08336A1F18337D0
:102CA000C1F1833509F063C02801F2E04F0E511CD9
:102CB000F801C080D180692D70E036FC02C06FEF52
:102CC0007FEFC6010E94C1174C01689437F882015A
:102CD0000AC00C5F1F4FFFE3F98388248394912C73
:102CE0006501E89437F833FE2DC0522C811491040D
:102CF00071F5552009F468CFB70180E290E00E9499
:102D0000D7175A94F6CFF801808189830E5F1F4F41
:102D1000E4CF2801F2E04F0E511CF801C080D180B1
:102D2000692D70E036FC02C06FEF7FEFC6010E9494
:102D3000CC174C018201D5CFB70180E290E00E9410
:102D4000D7172A942814190409F0B0F7CECFF6014A
:102D500037FC859137FE81916F01B70190E00E94A9
:102D6000D71751105A94F1E08F1A9108BFCF8436CB
:102D700019F0893609F077C0F80137FE6BC0608121
:102D80007181828193810C5F1F4FF32DFF763F2E5F
:102D900097FF09C090958095709561957F4F8F4FF3
:102DA0009F4F689437F82AE030E0A5010E94071889
:102DB000C82ECA188C2C432C36FE0CC0E89440F860
:102DC000C91440F434FE05C032FC03C0F32DFE7E6E
:102DD0004F2E892C44FEAAC0FE01EC0DF11D80810E
:102DE000803309F09CC0242D297E422E842D8870CA
:102DF000582E43FCAAC040FEA4C09C2C821418F498
:102E00002C0C922C981844FEA6C0B70180E390E0E9
:102E10000E94D71742FE09C088E790E041FE02C039
:102E200088E590E0B7010E94D717C91408F49FC045
:102E3000CA94D12C9FEFC91AD90ACA0CDB1CF6011F
:102E400082916F01B70190E00E94D717AC14BD04C6
:102E5000B1F74FCF60817181072E000C880B990B61
:102E60000E5F1F4F92CFD32CE894D4F82AE030E0C5
:102E70008537E1F1232D297FD22E8F36A9F1F0F489
:102E8000883551F1F701868197812B960FB6F8941A
:102E9000DEBF0FBECDBFDF91CF911F910F91FF908D
:102EA000EF90DF90CF90BF90AF909F908F907F90EA
:102EB0006F905F904F903F902F900895803749F02A
:102EC000883701F7D4FE02C06894D2F820E130E0E0
:102ED0000DC06894D4F8F6CF34FE03C0822F86600C
:102EE000D82E20E132E002C028E030E0F801D7FE21
:102EF0000FC060817181828193810C5F1F4FA5019A
:102F00000E940718C82ECA183D2CE89437F852CFF3
:102F10006081718190E080E00E5F1F4FF0CF42FC36
:102F200002C0839463CF8394839460CF842D86788A
:102F300009F45CCFF6CFB70180E290E00E94D7178A
:102F400083948214C0F3512C5ECF522C58188214F3
:102F500008F459CFF8CF842D867809F466CF8BE238
:102F600041FE80E247FC8DE2B70190E05CCFB70103
:102F700080E390E00E94D7179A9457CF8FEF9FEF8E
:102F800084CFFC010590615070400110D8F7809506
:102F900090958E0F9F1F0895FC0161507040019025
:102FA0000110D8F7809590958E0F9F1F08950F936D
:102FB0001F93CF93DF93182F092FEB018B8181FD96
:102FC00009C01FEF0FEF812F902FDF91CF911F913D
:102FD0000F91089582FF14C02E813F818C819D81C5
:102FE000281739073CF4E881F981CF0101969983CC
:102FF000888310838E819F8101969F838E83E3CF88
:10300000E885F985812F1995892BA1F3DACFFA018B
:10301000AA27283051F1203181F1E8946F936E7F17
:103020006E5F7F4F8F4F9F4FAF4FB1E03ED0B4E008
:103030003CD0670F781F891F9A1FA11D680F791F49
:103040008A1F911DA11D6A0F711D811D911DA11D5A
:1030500020D009F468943F912AE0269F112430196A
:10306000305D3193DEF6CF010895462F4770405D05
:103070004193B3E00FD0C9F7F6CF462F4F70405DB4
:103080004A3318F0495D31FD4052419302D0A9F70F
:10309000EACFB4E0A6959795879577956795BA9509
:1030A000C9F700976105710508959B01AC010A2ECF
:1030B00006945795479537952795BA95C9F7620FA6
:1030C000731F841F951FA01D089511E0C3E6D1E072
:1030D00000E006C0802FFE010E945B132196011DB7
:0E30E000C436D10780E00807A9F7F894FFCFA7
:1030EE00FF00005C0480000000400014005400004B
:1030FE00000000D406D006A8063738392F343536EE
:10310E002A3132332D43303D2B000000007805D993
:10311E00040F05C50540051E05320500000000968A
:10312E00076907AC083F0762074F0740070000001A
:10313E0000DF08D904AC08D8060607080902030404
:10314E00053538373900426C6F717565643A202544
:10315E006C7573004163636573732044656E6965B6
:10316E006400416363657373206772616E74656496
:0C317E000054727920416761696E000006
:00000001FF
